{
  "_format": "hh-sol-artifact-1",
  "contractName": "TaskHash",
  "sourceName": "contracts/TaskHash.sol",
  "abi": [
    {
      "anonymous": false,
      "inputs": [
        {
          "indexed": true,
          "internalType": "address",
          "name": "user",
          "type": "address"
        },
        {
          "indexed": false,
          "internalType": "bytes32",
          "name": "taskHash",
          "type": "bytes32"
        }
      ],
      "name": "TaskHashStored",
      "type": "event"
    },
    {
      "anonymous": false,
      "inputs": [
        {
          "indexed": true,
          "internalType": "address",
          "name": "user",
          "type": "address"
        },
        {
          "indexed": false,
          "internalType": "bytes32",
          "name": "taskHash",
          "type": "bytes32"
        },
        {
          "indexed": false,
          "internalType": "bool",
          "name": "exists",
          "type": "bool"
        }
      ],
      "name": "TaskHashVerified",
      "type": "event"
    },
    {
      "inputs": [
        {
          "internalType": "bytes32[]",
          "name": "_taskHashes",
          "type": "bytes32[]"
        }
      ],
      "name": "batchStoreTaskHashes",
      "outputs": [],
      "stateMutability": "nonpayable",
      "type": "function"
    },
    {
      "inputs": [
        {
          "internalType": "bytes32",
          "name": "_taskHash",
          "type": "bytes32"
        }
      ],
      "name": "storeTaskHash",
      "outputs": [],
      "stateMutability": "nonpayable",
      "type": "function"
    },
    {
      "inputs": [
        {
          "internalType": "bytes32",
          "name": "_taskHash",
          "type": "bytes32"
        }
      ],
      "name": "verifyTaskHash",
      "outputs": [
        {
          "internalType": "bool",
          "name": "",
          "type": "bool"
        }
      ],
      "stateMutability": "view",
      "type": "function"
    }
  ],
  "bytecode": "0x608060405234801561001057600080fd5b5061075a806100206000396000f3fe608060405234801561001057600080fd5b50600436106100415760003560e01c80633ec335e414610046578063ba7f833d14610062578063df7c650a1461007e575b600080fd5b610060600480360381019061005b91906103c8565b6100ae565b005b61007c6004803603810190610077919061054e565b6101ac565b005b610098600480360381019061009391906103c8565b610318565b6040516100a591906105b2565b60405180910390f35b6000801b81036100f3576040517f08c379a00000000000000000000000000000000000000000000000000000000081526004016100ea9061062a565b60405180910390fd5b60016000803373ffffffffffffffffffffffffffffffffffffffff1673ffffffffffffffffffffffffffffffffffffffff168152602001908152602001600020600083815260200190815260200160002060006101000a81548160ff0219169083151502179055503373ffffffffffffffffffffffffffffffffffffffff167f60ddd30b07d72715fb08b9c65f4d33e41c60450ba93e6d797739501eb58ccfdb826040516101a19190610659565b60405180910390a250565b60005b8151811015610314576000801b8282815181106101cf576101ce610674565b5b602002602001015103610217576040517f08c379a000000000000000000000000000000000000000000000000000000000815260040161020e9061062a565b60405180910390fd5b60016000803373ffffffffffffffffffffffffffffffffffffffff1673ffffffffffffffffffffffffffffffffffffffff168152602001908152602001600020600084848151811061026c5761026b610674565b5b6020026020010151815260200190815260200160002060006101000a81548160ff0219169083151502179055503373ffffffffffffffffffffffffffffffffffffffff167f60ddd30b07d72715fb08b9c65f4d33e41c60450ba93e6d797739501eb58ccfdb8383815181106102e4576102e3610674565b5b60200260200101516040516102f99190610659565b60405180910390a2808061030c906106dc565b9150506101af565b5050565b60008060003373ffffffffffffffffffffffffffffffffffffffff1673ffffffffffffffffffffffffffffffffffffffff168152602001908152602001600020600083815260200190815260200160002060009054906101000a900460ff169050919050565b6000604051905090565b600080fd5b600080fd5b6000819050919050565b6103a581610392565b81146103b057600080fd5b50565b6000813590506103c28161039c565b92915050565b6000602082840312156103de576103dd610388565b5b60006103ec848285016103b3565b91505092915050565b600080fd5b6000601f19601f8301169050919050565b7f4e487b7100000000000000000000000000000000000000000000000000000000600052604160045260246000fd5b610443826103fa565b810181811067ffffffffffffffff821117156104625761046161040b565b5b80604052505050565b600061047561037e565b9050610481828261043a565b919050565b600067ffffffffffffffff8211156104a1576104a061040b565b5b602082029050602081019050919050565b600080fd5b60006104ca6104c584610486565b61046b565b905080838252602082019050602084028301858111156104ed576104ec6104b2565b5b835b81811015610516578061050288826103b3565b8452602084019350506020810190506104ef565b5050509392505050565b600082601f830112610535576105346103f5565b5b81356105458482602086016104b7565b91505092915050565b60006020828403121561056457610563610388565b5b600082013567ffffffffffffffff8111156105825761058161038d565b5b61058e84828501610520565b91505092915050565b60008115159050919050565b6105ac81610597565b82525050565b60006020820190506105c760008301846105a3565b92915050565b600082825260208201905092915050565b7f496e76616c6964207461736b2068617368000000000000000000000000000000600082015250565b60006106146011836105cd565b915061061f826105de565b602082019050919050565b6000602082019050818103600083015261064381610607565b9050919050565b61065381610392565b82525050565b600060208201905061066e600083018461064a565b92915050565b7f4e487b7100000000000000000000000000000000000000000000000000000000600052603260045260246000fd5b7f4e487b7100000000000000000000000000000000000000000000000000000000600052601160045260246000fd5b6000819050919050565b60006106e7826106d2565b91507fffffffffffffffffffffffffffffffffffffffffffffffffffffffffffffffff8203610719576107186106a3565b5b60018201905091905056fea264697066735822122023cd217fe57b5c462956e8ab1e8761cdb5ea05a296d4af661fe41e2548a74ab964736f6c63430008130033",
  "linkReferences": {},
  "deployedLinkReferences": {}
}